{
  "_format": "hh-sol-artifact-1",
  "contractName": "TinyBank",
  "sourceName": "contracts/TinyBank.sol",
  "abi": [
    {
      "inputs": [
        {
          "internalType": "contract IMyToken",
          "name": "_stakingToken",
          "type": "address"
        },
        {
          "internalType": "address[5]",
          "name": "_managers",
          "type": "address[5]"
        }
      ],
      "stateMutability": "nonpayable",
      "type": "constructor"
    },
    {
      "anonymous": false,
      "inputs": [
        {
          "indexed": false,
          "internalType": "address",
          "name": "from",
          "type": "address"
        },
        {
          "indexed": false,
          "internalType": "uint256",
          "name": "amount",
          "type": "uint256"
        }
      ],
      "name": "Staked",
      "type": "event"
    },
    {
      "anonymous": false,
      "inputs": [
        {
          "indexed": false,
          "internalType": "uint256",
          "name": "amount",
          "type": "uint256"
        },
        {
          "indexed": false,
          "internalType": "address",
          "name": "to",
          "type": "address"
        }
      ],
      "name": "Withdraw",
      "type": "event"
    },
    {
      "inputs": [],
      "name": "confirm",
      "outputs": [],
      "stateMutability": "nonpayable",
      "type": "function"
    },
    {
      "inputs": [
        {
          "internalType": "uint256",
          "name": "",
          "type": "uint256"
        }
      ],
      "name": "confirmed",
      "outputs": [
        {
          "internalType": "bool",
          "name": "",
          "type": "bool"
        }
      ],
      "stateMutability": "view",
      "type": "function"
    },
    {
      "inputs": [
        {
          "internalType": "address",
          "name": "to",
          "type": "address"
        }
      ],
      "name": "currentReward",
      "outputs": [
        {
          "internalType": "uint256",
          "name": "",
          "type": "uint256"
        }
      ],
      "stateMutability": "view",
      "type": "function"
    },
    {
      "inputs": [
        {
          "internalType": "address",
          "name": "",
          "type": "address"
        }
      ],
      "name": "lastClaimedBlock",
      "outputs": [
        {
          "internalType": "uint256",
          "name": "",
          "type": "uint256"
        }
      ],
      "stateMutability": "view",
      "type": "function"
    },
    {
      "inputs": [
        {
          "internalType": "uint256",
          "name": "",
          "type": "uint256"
        }
      ],
      "name": "managers",
      "outputs": [
        {
          "internalType": "address",
          "name": "",
          "type": "address"
        }
      ],
      "stateMutability": "view",
      "type": "function"
    },
    {
      "inputs": [],
      "name": "owner",
      "outputs": [
        {
          "internalType": "address",
          "name": "",
          "type": "address"
        }
      ],
      "stateMutability": "view",
      "type": "function"
    },
    {
      "inputs": [],
      "name": "rewardPerBlock",
      "outputs": [
        {
          "internalType": "uint256",
          "name": "",
          "type": "uint256"
        }
      ],
      "stateMutability": "view",
      "type": "function"
    },
    {
      "inputs": [
        {
          "internalType": "uint256",
          "name": "_amount",
          "type": "uint256"
        }
      ],
      "name": "setRewardPerBlock",
      "outputs": [],
      "stateMutability": "nonpayable",
      "type": "function"
    },
    {
      "inputs": [
        {
          "internalType": "uint256",
          "name": "_amount",
          "type": "uint256"
        }
      ],
      "name": "stake",
      "outputs": [],
      "stateMutability": "nonpayable",
      "type": "function"
    },
    {
      "inputs": [
        {
          "internalType": "address",
          "name": "",
          "type": "address"
        }
      ],
      "name": "staked",
      "outputs": [
        {
          "internalType": "uint256",
          "name": "",
          "type": "uint256"
        }
      ],
      "stateMutability": "view",
      "type": "function"
    },
    {
      "inputs": [],
      "name": "stakingToken",
      "outputs": [
        {
          "internalType": "contract IMyToken",
          "name": "",
          "type": "address"
        }
      ],
      "stateMutability": "view",
      "type": "function"
    },
    {
      "inputs": [],
      "name": "totalStaked",
      "outputs": [
        {
          "internalType": "uint256",
          "name": "",
          "type": "uint256"
        }
      ],
      "stateMutability": "view",
      "type": "function"
    },
    {
      "inputs": [
        {
          "internalType": "uint256",
          "name": "_amount",
          "type": "uint256"
        }
      ],
      "name": "withdraw",
      "outputs": [],
      "stateMutability": "nonpayable",
      "type": "function"
    }
  ],
  "bytecode": "0x60a0604052670de0b6b3a764000060095534801561001c57600080fd5b50604051611805380380611805833981810160405281019061003e919061034a565b3381816000806101000a81548173ffffffffffffffffffffffffffffffffffffffff021916908373ffffffffffffffffffffffffffffffffffffffff16021790555060005b60058110156101045781816005811061009f5761009e61038a565b5b6020020151600182600581106100b8576100b761038a565b5b0160006101000a81548173ffffffffffffffffffffffffffffffffffffffff021916908373ffffffffffffffffffffffffffffffffffffffff1602179055508080600101915050610083565b50505081600760006101000a81548173ffffffffffffffffffffffffffffffffffffffff021916908373ffffffffffffffffffffffffffffffffffffffff160217905550600954600a8190555050506103b9565b6000604051905090565b600080fd5b600073ffffffffffffffffffffffffffffffffffffffff82169050919050565b600061019282610167565b9050919050565b60006101a482610187565b9050919050565b6101b481610199565b81146101bf57600080fd5b50565b6000815190506101d1816101ab565b92915050565b600080fd5b6000601f19601f8301169050919050565b7f4e487b7100000000000000000000000000000000000000000000000000000000600052604160045260246000fd5b610225826101dc565b810181811067ffffffffffffffff82111715610244576102436101ed565b5b80604052505050565b6000610257610158565b9050610263828261021c565b919050565b600067ffffffffffffffff821115610283576102826101ed565b5b602082029050919050565b600080fd5b61029c81610187565b81146102a757600080fd5b50565b6000815190506102b981610293565b92915050565b60006102d26102cd84610268565b61024d565b905080602084028301858111156102ec576102eb61028e565b5b835b81811015610315578061030188826102aa565b8452602084019350506020810190506102ee565b5050509392505050565b600082601f830112610334576103336101d7565b5b60056103418482856102bf565b91505092915050565b60008060c0838503121561036157610360610162565b5b600061036f858286016101c2565b92505060206103808582860161031f565b9150509250929050565b7f4e487b7100000000000000000000000000000000000000000000000000000000600052603260045260246000fd5b6080516114346103d1600039600050506114346000f3fe608060405234801561001057600080fd5b50600436106100cf5760003560e01c80638da5cb5b1161008c578063a694fc3a11610066578063a694fc3a14610202578063bb872b4a1461021e578063c19e82d51461023a578063f3ac27321461026a576100cf565b80638da5cb5b1461018457806398807d84146101a25780639d18e4b0146101d2576100cf565b80632e1a7d4d146100d45780633d39c260146100f05780637022b58e1461012057806372f702f31461012a578063817b1cd2146101485780638ae39cac14610166575b600080fd5b6100ee60048036038101906100e99190610e90565b61029a565b005b61010a60048036038101906101059190610e90565b61062e565b6040516101179190610efe565b60405180910390f35b610128610664565b005b610132610768565b60405161013f9190610f78565b60405180910390f35b61015061078e565b60405161015d9190610fa2565b60405180910390f35b61016e610794565b60405161017b9190610fa2565b60405180910390f35b61018c61079a565b6040516101999190610efe565b60405180910390f35b6101bc60048036038101906101b79190610fe9565b6107be565b6040516101c99190610fa2565b60405180910390f35b6101ec60048036038101906101e79190610fe9565b6107d6565b6040516101f99190610fa2565b60405180910390f35b61021c60048036038101906102179190610e90565b6108e5565b005b61023860048036038101906102339190610e90565b610c3d565b005b610254600480360381019061024f9190610fe9565b610d63565b6040516102619190610fa2565b60405180910390f35b610284600480360381019061027f9190610e90565b610d7b565b6040516102919190611031565b60405180910390f35b336000600b60008373ffffffffffffffffffffffffffffffffffffffff1673ffffffffffffffffffffffffffffffffffffffff16815260200190815260200160002054111561042d576000600860008373ffffffffffffffffffffffffffffffffffffffff1673ffffffffffffffffffffffffffffffffffffffff1681526020019081526020016000205443610330919061107b565b90506000600c54600b60008573ffffffffffffffffffffffffffffffffffffffff1673ffffffffffffffffffffffffffffffffffffffff16815260200190815260200160002054600a548461038591906110af565b61038f91906110af565b6103999190611120565b9050600760009054906101000a900473ffffffffffffffffffffffffffffffffffffffff1673ffffffffffffffffffffffffffffffffffffffff166394bf804d82856040518363ffffffff1660e01b81526004016103f8929190611151565b600060405180830381600087803b15801561041257600080fd5b505af1158015610426573d6000803e3d6000fd5b5050505050505b43600860008373ffffffffffffffffffffffffffffffffffffffff1673ffffffffffffffffffffffffffffffffffffffff1681526020019081526020016000208190555081600b60003373ffffffffffffffffffffffffffffffffffffffff1673ffffffffffffffffffffffffffffffffffffffff1681526020019081526020016000205410156104f3576040517f08c379a00000000000000000000000000000000000000000000000000000000081526004016104ea906111d7565b60405180910390fd5b600760009054906101000a900473ffffffffffffffffffffffffffffffffffffffff1673ffffffffffffffffffffffffffffffffffffffff1663b7760c8f83336040518363ffffffff1660e01b8152600401610550929190611151565b600060405180830381600087803b15801561056a57600080fd5b505af115801561057e573d6000803e3d6000fd5b5050505081600b60003373ffffffffffffffffffffffffffffffffffffffff1673ffffffffffffffffffffffffffffffffffffffff16815260200190815260200160002060008282546105d1919061107b565b9250508190555081600c60008282546105ea919061107b565b925050819055507f8353ffcac0876ad14e226d9783c04540bfebf13871e868157d2a391cad98e9188233604051610622929190611151565b60405180910390a15050565b6001816005811061063e57600080fd5b016000915054906101000a900473ffffffffffffffffffffffffffffffffffffffff1681565b6000805b6005811015610724573373ffffffffffffffffffffffffffffffffffffffff166001826005811061069c5761069b6111f7565b5b0160009054906101000a900473ffffffffffffffffffffffffffffffffffffffff1673ffffffffffffffffffffffffffffffffffffffff160361071757600191506001600682600581106106f3576106f26111f7565b5b602091828204019190066101000a81548160ff021916908315150217905550610724565b8080600101915050610668565b5080610765576040517f08c379a000000000000000000000000000000000000000000000000000000000815260040161075c90611272565b60405180910390fd5b50565b600760009054906101000a900473ffffffffffffffffffffffffffffffffffffffff1681565b600c5481565b600a5481565b60008054906101000a900473ffffffffffffffffffffffffffffffffffffffff1681565b600b6020528060005260406000206000915090505481565b600080600b60008473ffffffffffffffffffffffffffffffffffffffff1673ffffffffffffffffffffffffffffffffffffffff1681526020019081526020016000205411156108db576000600860008473ffffffffffffffffffffffffffffffffffffffff1673ffffffffffffffffffffffffffffffffffffffff168152602001908152602001600020544361086c919061107b565b9050600c54600b60008573ffffffffffffffffffffffffffffffffffffffff1673ffffffffffffffffffffffffffffffffffffffff16815260200190815260200160002054600a54836108bf91906110af565b6108c991906110af565b6108d39190611120565b9150506108e0565b600090505b919050565b336000600b60008373ffffffffffffffffffffffffffffffffffffffff1673ffffffffffffffffffffffffffffffffffffffff168152602001908152602001600020541115610a78576000600860008373ffffffffffffffffffffffffffffffffffffffff1673ffffffffffffffffffffffffffffffffffffffff168152602001908152602001600020544361097b919061107b565b90506000600c54600b60008573ffffffffffffffffffffffffffffffffffffffff1673ffffffffffffffffffffffffffffffffffffffff16815260200190815260200160002054600a54846109d091906110af565b6109da91906110af565b6109e49190611120565b9050600760009054906101000a900473ffffffffffffffffffffffffffffffffffffffff1673ffffffffffffffffffffffffffffffffffffffff166394bf804d82856040518363ffffffff1660e01b8152600401610a43929190611151565b600060405180830381600087803b158015610a5d57600080fd5b505af1158015610a71573d6000803e3d6000fd5b5050505050505b43600860008373ffffffffffffffffffffffffffffffffffffffff1673ffffffffffffffffffffffffffffffffffffffff168152602001908152602001600020819055506000821015610b00576040517f08c379a0000000000000000000000000000000000000000000000000000000008152600401610af7906112de565b60405180910390fd5b600760009054906101000a900473ffffffffffffffffffffffffffffffffffffffff1673ffffffffffffffffffffffffffffffffffffffff166323b872dd3330856040518463ffffffff1660e01b8152600401610b5f939291906112fe565b600060405180830381600087803b158015610b7957600080fd5b505af1158015610b8d573d6000803e3d6000fd5b5050505081600b60003373ffffffffffffffffffffffffffffffffffffffff1673ffffffffffffffffffffffffffffffffffffffff1681526020019081526020016000206000828254610be09190611335565b9250508190555081600c6000828254610bf99190611335565b925050819055507f9e71bc8eea02a63969f509818f2dafb9254532904319f9dbda79b67bd34a5f3d3383604051610c31929190611369565b60405180910390a15050565b6000805b6005811015610cc8573373ffffffffffffffffffffffffffffffffffffffff1660018260058110610c7557610c746111f7565b5b0160009054906101000a900473ffffffffffffffffffffffffffffffffffffffff1673ffffffffffffffffffffffffffffffffffffffff1603610cbb5760019150610cc8565b8080600101915050610c41565b5080610d09576040517f08c379a0000000000000000000000000000000000000000000000000000000008152600401610d0090611272565b60405180910390fd5b610d11610da5565b610d50576040517f08c379a0000000000000000000000000000000000000000000000000000000008152600401610d47906113de565b60405180910390fd5b610d58610e04565b81600a819055505050565b60086020528060005260406000206000915090505481565b60068160058110610d8b57600080fd5b60209182820401919006915054906101000a900460ff1681565b600080600090505b6005811015610dfb5760068160058110610dca57610dc96111f7565b5b602091828204019190069054906101000a900460ff16610dee576000915050610e01565b8080600101915050610dad565b50600190505b90565b60005b6005811015610e5257600060068260058110610e2657610e256111f7565b5b602091828204019190066101000a81548160ff0219169083151502179055508080600101915050610e07565b50565b600080fd5b6000819050919050565b610e6d81610e5a565b8114610e7857600080fd5b50565b600081359050610e8a81610e64565b92915050565b600060208284031215610ea657610ea5610e55565b5b6000610eb484828501610e7b565b91505092915050565b600073ffffffffffffffffffffffffffffffffffffffff82169050919050565b6000610ee882610ebd565b9050919050565b610ef881610edd565b82525050565b6000602082019050610f136000830184610eef565b92915050565b6000819050919050565b6000610f3e610f39610f3484610ebd565b610f19565b610ebd565b9050919050565b6000610f5082610f23565b9050919050565b6000610f6282610f45565b9050919050565b610f7281610f57565b82525050565b6000602082019050610f8d6000830184610f69565b92915050565b610f9c81610e5a565b82525050565b6000602082019050610fb76000830184610f93565b92915050565b610fc681610edd565b8114610fd157600080fd5b50565b600081359050610fe381610fbd565b92915050565b600060208284031215610fff57610ffe610e55565b5b600061100d84828501610fd4565b91505092915050565b60008115159050919050565b61102b81611016565b82525050565b60006020820190506110466000830184611022565b92915050565b7f4e487b7100000000000000000000000000000000000000000000000000000000600052601160045260246000fd5b600061108682610e5a565b915061109183610e5a565b92508282039050818111156110a9576110a861104c565b5b92915050565b60006110ba82610e5a565b91506110c583610e5a565b92508282026110d381610e5a565b915082820484148315176110ea576110e961104c565b5b5092915050565b7f4e487b7100000000000000000000000000000000000000000000000000000000600052601260045260246000fd5b600061112b82610e5a565b915061113683610e5a565b925082611146576111456110f1565b5b828204905092915050565b60006040820190506111666000830185610f93565b6111736020830184610eef565b9392505050565b600082825260208201905092915050565b7f496e73756666696369656e74207374616b656420746f6b656e00000000000000600082015250565b60006111c160198361117a565b91506111cc8261118b565b602082019050919050565b600060208201905081810360008301526111f0816111b4565b9050919050565b7f4e487b7100000000000000000000000000000000000000000000000000000000600052603260045260246000fd5b7f596f7520617265206e6f742061206d616e616765720000000000000000000000600082015250565b600061125c60158361117a565b915061126782611226565b602082019050919050565b6000602082019050818103600083015261128b8161124f565b9050919050565b7f63616e6e6f74207374616b65203020616d6f756e740000000000000000000000600082015250565b60006112c860158361117a565b91506112d382611292565b602082019050919050565b600060208201905081810360008301526112f7816112bb565b9050919050565b60006060820190506113136000830186610eef565b6113206020830185610eef565b61132d6040830184610f93565b949350505050565b600061134082610e5a565b915061134b83610e5a565b92508282019050808211156113635761136261104c565b5b92915050565b600060408201905061137e6000830185610eef565b61138b6020830184610f93565b9392505050565b7f4e6f7420616c6c20636f6e6669726d6564207965740000000000000000000000600082015250565b60006113c860158361117a565b91506113d382611392565b602082019050919050565b600060208201905081810360008301526113f7816113bb565b905091905056fea26469706673582212200f45ad1242e444562ee35a3f096e2afa9519395d741bc49f84b4e1229d820f3164736f6c634300081c0033",
  "linkReferences": {},
  "deployedLinkReferences": {}
}